:040000005BEF00F0C2
:100008005082FACF41F0FBCF42F0D9CF43F0DACF9C
:1000180044F0F3CF45F0F4CF46F0F6CF47F0F7CFF2
:1000280048F0F8CF49F0F5CF4AF0A0A61EEF00F04F
:1000380020EF00F035EF00F0A1A625EF00F027EF44
:1000480000F035EF00F002D833EF00F00500FA6E4B
:100058002B50FD6E2C50FE6EFF6AFA50120045EFD1
:1000680000F09DA63AEF00F03CEF00F045EF00F0FD
:100078009EA641EF00F043EF00F045EF00F027EFB8
:1000880000F04AC0F5FF49C0F8FF48C0F7FF47C075
:10009800F6FF46C0F4FF45C0F3FF44C0DAFF43C093
:1000A800D9FF42C0FBFF41C0FAFF50921100DBEFBD
:0200B8000BF04B
:1010000000041CA41BB21B54121213FA1BD6144E5C
:101010001C461C3E1C361C2E1C261C1E1CF01B5283
:05102000172569000026
:10102600010E0001996F9351D8B41CEF08F01EEF22
:1010360008F02EEF08F09351D96EDA6ADF30E83205
:10104600E832070B946F070E94652CEF08F02EEF2D
:1010560008F087EF08F0000E996F9DEF08F09351A6
:10106600D96EDA6ADF30E832E832070B946F010E88
:10107600956F942B41EF08F0D8909537942F3FEF5A
:1010860008F000019551FF0A966F9351D96EDA6AFE
:10109600DF50070B020DF350740FD96EDA6ADECFFC
:1010A60097F0DDCF98F097C0D9FF98C0DAFF965138
:1010B600DF169DEF08F09351D96EDA6ADF30E83219
:1010C600E832070B946F010E956F942B6DEF08F0C5
:1010D600D8909537942F6BEF08F000019351D96E95
:1010E600DA6ADF50070B020DF350740FD96EDA6A15
:1010F600DECF96F0DDCF97F096C0D9FF97C0DAFF26
:101106009551DF129DEF08F09351D96EDA6ADFBC74
:101116008FEF08F092EF08F0010E93EF08F0000E43
:10112600000AD8B432EF08F0010AD8B45EEF08F02E
:101136002EEF08F099511200010E00019A6F93519B
:10114600D8B4A8EF08F0AAEF08F0BAEF08F0935168
:10115600D96EDA6ADF30E832E832070B956F070E90
:101166009565B8EF08F0BAEF08F013EF09F0000E36
:101176009A6F28EF09F09351D96EDA6ADF30E832B8
:10118600E832070B956F010E966F952BCDEF08F0A1
:10119600D8909637952FCBEF08F000019651FF0AAD
:1011A600976F9351D96EDA6ADF50070B020DF35031
:1011B6006A0FD96EDA6ADECF98F0DDCF99F098C063
:1011C600D9FF99C0DAFF9751DF1628EF09F093513E
:1011D600D96EDA6ADF30E832E832070B956F010E16
:1011E600966F952BF9EF08F0D8909637952FF7EF75
:1011F60008F000019351D96EDA6ADF50070B020D31
:10120600F3506A0FD96EDA6ADECF97F0DDCF98F029
:1012160097C0D9FF98C0DAFF9651DF1228EF09F080
:101226009451956F966B9651000AD8B41DEF09F04C
:10123600BAEF08F09551000AD8B4BEEF08F0010ADB
:10124600D8B4EAEF08F0BAEF08F09A511200C8ECE9
:101256000DF00009D8B432EF09F034EF09F06EEF63
:1012660009F042EF09F027EC0EF088EF09F023ECC5
:101276000EF088EF09F01BEC0EF088EF09F013C0B2
:1012860039F014C03AF002D852EF09F00500FA6EB0
:101296000750FD6E0850FE6EFF6AFA5012003C6E53
:1012A6003D6A3D50000AD8B45BEF09F03EEF09F005
:1012B6003C50010AD8B43EEF09F0030AD8B436EF21
:1012C60009F0010AD8B43AEF09F0070AD8B43EEF9C
:1012D60009F03EEF09F024901EC0D9FF1FC0DAFFC7
:1012E6001E4A1F2ADF502BEC0EF02006D8A021063E
:1012F60020502110D8A482EF09F084EF09F087EF7F
:1013060009F0060E88EF09F0030E120046EC0EF007
:101316001EC0D9FF1FC0DAFFDF6E1E4A1F2A200635
:10132600D8A0210620502110D8B49CEF09F09EEFDA
:1013360009F0A3EF09F032EC0EF0050EDAEF09F032
:101346002486AEEF09F00FEC0EF0DAEF09F013EC9D
:101356000EF0DAEF09F00DC039F00EC03AF002D8FF
:10136600BEEF09F00500FA6E0150FD6E0250FE6EEA
:10137600FF6AFA5012003C6E3D6A3D50000AD8B42E
:10138600C7EF09F0AAEF09F03C50010AD8B4AAEF5A
:1013960009F0030AD8B4A6EF09F0010AD8B4A6EFFB
:1013A60009F0070AD8B4AAEF09F0AAEF09F012006B
:1013B6000001956F010E0001966F24B4E5EF09F068
:1013C600E7EF09F02AEF0AF095C01DF02492248475
:1013D60024900E0E226E010E1C6EF40E1B6E2486D9
:1013E600980E016E1C0E026E000E0D6E000E0E6E35
:1013F600980E036E1C0E046E000E0F6E000E106E1D
:10140600980E056E1C0E066E000E116E000E126E04
:10141600980E076E1C0E086E000E136E000E146EEC
:10142600940E096E1C0E0A6E000E156E000E166ED8
:101436005E0E936F1C0E946FDFEC0DF040EC0EF019
:101446006CEC0DF038EC0EF0000E0001966F965124
:10145600120000019D6F000E00019E6F00019D515C
:10146600DBEC09F00009D8B43BEF0AF03DEF0AF0D7
:1014760031EF0AF0100E0001986F1A0E996F9E0E4A
:101486009A6F9B6B9AEC0DF09C0E0001936F946B18
:10149600000E966F010E956F5BEC0DF0000E0001CD
:1014A600986F000E996F000E9A6F000E9B6FA6EC58
:1014B6000DF007EC0EF0C5EC0CF0E806D8B466EFBC
:1014C6000AF068EF0AF05EEF0AF000019E51120082
:1014D60024867BEF0AF01FEC0EF0A7EF0AF044EC2F
:1014E6000EF0030EA7EF0AF01BEC0EF0A7EF0AF0C2
:1014F6000DC039F00EC03AF002D88BEF0AF00500A5
:10150600FA6E0150FD6E0250FE6EFF6AFA5012002E
:101516003C6E3D6A3D50000AD8B494EF0AF077EF6E
:101526000AF03C50010AD8B477EF0AF0030AD8B49F
:101536006EEF0AF0010AD8B46EEF0AF0070AD8B4C3
:1015460072EF0AF077EF0AF012000001976F0001C0
:1015560093519411D8B4B2EF0AF0B4EF0AF0CAEF7F
:101566000AF09751020DF350010FD96EDA6A93C053
:10157600DEFF94C0DDFF9751020DF3500D0FD96EBB
:10158600DA6A95C0DEFF96C0DDFFDCEF0AF0975100
:10159600020DF350010FD96EDA6A980EDE6E1C0E3C
:1015A600DD6E9751020DF3500D0FD96EDA6ADE6AC1
:1015B600DD6A12000001936F240E00019365E6EFC9
:1015C6000AF0E8EF0AF0EEEF0AF089808992899432
:1015D600899610EF0BF0150E9361F4EF0AF0F6EF13
:1015E6000AF0FCEF0AF0899089928984899610EFB7
:1015F6000BF0260E936102EF0BF004EF0BF010EFE9
:101606000BF0130E93650AEF0BF00CEF0BF010EFD7
:101616000BF08990899289948996120042EC0EF01B
:1016260024A018EF0BF01AEF0BF026EF0BF0C8EC26
:101636000DF00009D8B422EF0BF024EF0BF026EFE3
:101646000BF00F0E226E2250020DF350010F3E6E6C
:101656003EC0F6FF100EF76EF86A0900F5CF3FF0B0
:101666000900F5CF40F002D842EF0BF00500FA6E04
:101676003F50FD6E4050FE6EFF6AFA501200226E19
:101686001200346E30503110D8B44CEF0BF04EEFE0
:101696000BF064EF0BF03450020DF350010FD96ECE
:1016A600DA6A30C0DEFF31C0DDFF3450020DF35080
:1016B6000D0FD96EDA6A32C0DEFF33C0DDFF76EF7A
:1016C6000BF03450020DF350010FD96EDA6A980E02
:1016D600DE6E1C0EDD6E3450020DF3500D0FD96E0A
:1016E600DA6ADE6ADD6A120000019B51D8B47EEF29
:1016F6000BF080EF0BF090EF0BF09B51D96EDA6A8E
:10170600DF30E832E832070B9C6F070E9C658EEFE0
:101716000BF090EF0BF094EF0BF0000E9D6FA7EF20
:101726000BF09BC093F013EC08F000019D6F9BC07B
:1017360093F09B51D96EDA6A000EDFBE010E946FEC
:101746009FEC08F000019D6F9D5112002490020E3F
:10175600236EB6EF0BF01FEC0EF0DAEF0BF01BEC7E
:101766000EF0DAEF0BF011C039F012C03AF002D8E1
:10177600C6EF0BF00500FA6E0550FD6E0650FE6EC4
:10178600FF6AFA5012003C6E3D6A3D50000AD8B41A
:10179600CFEF0BF0B2EF0BF03C50020AD8B4AEEF2D
:1017A6000BF0010AD8B4AEEF0BF0B2EF0BF012005B
:1017B600920EF66E1A0EF76E000EF86E00EE60F0E0
:1017C60010EE23F00900F5CFEEFFE550E150FAE107
:1017D600A40EF66E1C0EF76E000EF86E0900F5CF1D
:1017E6004FF000EE83F0100EEE6AE806FDE100EE23
:1017F60001F02F0EEE6AE806FDE1509050920001CE
:10180600ABEF0CF000019E51D8A40CEF0CF00EEFDC
:101816000CF010EF0CF02AEF0CF09EC09BF077EC6A
:101826000BF000019F6F9E299B6F77EC0BF0000178
:101836009F6F9E51020F9B6F77EC0BF000019F6F1D
:101846009E51030F9B6F77EC0BF000019F6F120008
:101856000001936F010E0001946F24B235EF0CF076
:1018660037EF0CF04AEF0CF02482000E946F935180
:10187600D8B440EF0CF042EF0CF046EF0CF0010E3E
:10188600226E48EF0CF0020E226E3AEC0EF00001CA
:1018960094511200080EB86E900EAB6E240EAC6E0C
:1018A600A00EAF6E010EB06E000E0001936F000E1B
:1018B600946FEEEC0DF0000E0001936F000E946F26
:1018C600E9EC0DF0000E0001936F000E946FF3EC3F
:1018D6000DF0000E2E6E120020EE02F03950D926C1
:1018E6003A50DA22DF503B6E3BC030F0316A39C0E5
:1018F600D9FF3AC0DAFFDECF32F0DDCF33F07DEC30
:101906000DF0000E356E000E366E000E376E000EB0
:10191600386EB2EC0DF0020E1200000E8D6E000E47
:101926008C6E000E896E0F0E8A6E000E8B6E070E81
:10193600966EF00E926EF00E936EBF0E946E9568D4
:10194600F00E7E6E080E7F6E000E7C6EF18E12001B
:1019560034EC0DF0F28EF28CF28C820E0001A16F47
:10196600DD0EE82EFED7A12FFCD700F000F09A0E70
:101976008EEC0DF02D6E2D50DDEC0AF0B0EF0CF074
:101986005BEF00F0010E0001936F24B2CDEF0CF077
:10199600CFEF0CF0D9EF0CF024941D6840EC0EF05C
:1019A6003CEC0EF03EEC0EF023C093F00001935198
:1019B600120039C030F03AC031F0000E336E010E1D
:1019C600326E7DEC0DF0000E356E000E366E000E9A
:1019D600376E000E386EB2EC0DF0040E120039C0F0
:1019E60030F03AC031F0000E336E020E326E7DECEE
:1019F6000DF0000E356E000E366E000E376E000EC0
:101A0600386EB2EC0DF0020E120039C030F03AC05A
:101A160031F0000E336E010E326E7DEC0DF0000ECD
:101A2600356E000E366E000E376E000E386EB2EC56
:101A36000DF0020E120039C030F03AC031F0000E3F
:101A4600336E020E326E7DEC0DF0000E356E000E1A
:101A5600366E000E376E000E386EB2EC0DF0040EC8
:101A660012000BEC0EF0BEEC0DF090EC0CF0E4EC7A
:101A76000DF04DEC0CF04F0E00019B6F77EC0BF068
:101A86007E0E00019E6F05EC0CF01200800F810F98
:101A9600820F830F840F890F8A0F8B0F8C0F8D0F88
:0F1AA600920F930F940F950F960F030B131B00C6
:101AB60024A660EF0DF062EF0DF06BEF0DF093C012
:101AC6001EF094C01FF095C020F096C021F0249619
:101AD6001200C6BA71EF0DF073EF0DF07CEF0DF04A
:101AE600800EC76E080EC66E000EC56E270EC86E37
:101AF600C68A120024A682EF0DF084EF0DF08DEF5A
:101B06000DF030C01EF031C01FF032C020F033C0DF
:101B160021F02496120000019F6F000E00019C6FB9
:101B26009F512CEC0AF00001A06FA051120098C042
:101B360093F099C094F09AC095F09BC096F0000E71
:101B4600A8EC0AF0120098C093F099C094F09AC0DD
:101B560095F09BC096F0020EA8EC0AF0120035C074
:101B660030F036C031F037C032F038C033F0000EF6
:101B760044EC0BF01200800EC76E080EC66E000E07
:101B8600C56E270EC86EC69A1200C5BCCDEF0DF005
:101B9600D0EF0DF0010ED1EF0DF0000E12002480F3
:101BA6001D5001092BEC0EF0050E120024801D506D
:101BB6002BEC0EF0030E120093C02BF094C02CF009
:101BC6001200300ED36E000E9B6E120093C04BF0C7
:101BD60094C04CF0120093C04DF094C04EF0120029
:101BE60093C0A2F094C0A3F012002492000E236EBC
:101BF6000E0E1200249048EC0EF0040E12002492F1
:101C0600000E236E0E0E1200000E2BEC0CF01200CE
:101C1600D08EA2869F86120035EC0EF0090E1200B9
:101C260035EC0EF00A0E120032EC0EF0050E120024
:101C36004EEC0EF0000E120050EC0EF0010E1200EB
:101C460050EC0EF0020E120050EC0EF0010E1200D7
:101C5600306E30C0C9FF120011EC0BF01200C59AAD
:101C6600C5881200C58AC58812009D861200C580E7
:101C760012009D961200C69A12009E9612009E961B
:101C860012009E861200C9501200C5861200050E6B
:0F1C96001200010E1200C5841200C58212003325
:020000040030CA
:0E000000FF021F1EFF8B85FF0FC00FE00F4099
:00000001FF
