:0400000031EF00F0EC
:100008005382FACF25F0FBCF26F09DAC0EEF00F01F
:1000180010EF00F01BEF00F09EAC15EF00F017EFAB
:1000280000F01BEF00F0EBEC0AF02BEF00F0F2AA67
:1000380020EF00F022EF00F02BEF00F0F2A427EF02
:1000480000F029EF00F02BEF00F0D4EC0AF026C006
:0E005800FBFF25C0FAFF539211009EEF0AF045
:0510000000256900005D
:10100600010E2D6E2750D8B40BEF08F00DEF08F047
:101016001DEF08F02750D96EDA6ADF30E832E83281
:10102600070B286E070E28641BEF08F01DEF08F06B
:1010360074EF08F0000E2D6E8AEF08F02750D96E77
:10104600DA6ADF30E832E832070B286E010E296EC5
:10105600282A30EF08F0D8902936282E2EEF08F0EF
:101066002950FF0A2A6E2750D96EDA6ADF50070B1D
:10107600020DF350150FD96EDA6ADECF2BF0DDCFF5
:101086002CF02BC0D9FF2CC0DAFF2A50DF168AEFCE
:1010960008F02750D96EDA6ADF30E832E832070BFB
:1010A600286E010E296E282A5BEF08F0D8902936A3
:1010B600282E59EF08F02750D96EDA6ADF50070B51
:1010C600020DF350150FD96EDA6ADECF2AF0DDCFA6
:1010D6002BF02AC0D9FF2BC0DAFF2950DF128AEF86
:1010E60008F02750D96EDA6ADFBC7CEF08F07FEF94
:1010F60008F0010E80EF08F0000E000AD8B421EFC8
:1011060008F0010AD8B44CEF08F01DEF08F02D5096
:101116001200010E2E6E2750D8B494EF08F096EF09
:1011260008F0A6EF08F02750D96EDA6ADF30E83209
:10113600E832070B296E070E2964A4EF08F0A6EF24
:1011460008F0FDEF08F0000E2E6E12EF09F02750A2
:10115600D96EDA6ADF30E832E832070B296E010E03
:101166002A6E292AB9EF08F0D8902A36292EB7EF29
:1011760008F02A50FF0A2B6E2750D96EDA6ADF5024
:10118600070B020DF3500B0FD96EDA6ADECF2CF087
:10119600DDCF2DF02CC0D9FF2DC0DAFF2B50DF1686
:1011A60012EF09F02750D96EDA6ADF30E832E832FA
:1011B600070B296E010E2A6E292AE4EF08F0D89053
:1011C6002A36292EE2EF08F02750D96EDA6ADF5068
:1011D600070B020DF3500B0FD96EDA6ADECF2BF038
:1011E600DDCF2CF02BC0D9FF2CC0DAFF2A50DF123E
:1011F60012EF09F02850296E2A6A2A50000AD8B43C
:1012060007EF09F0A6EF08F02950000AD8B4AAEFB4
:1012160008F0010AD8B4D5EF08F0A6EF08F02E5072
:101226001200000E386E3550D8A41CEF09F01EEFE0
:1012360009F020EF09F086EF09F035C02FF087ECB2
:1012460009F0376E35282F6E87EC09F0376E000EE1
:10125600386E35503824020F2F6E87EC09F0382A85
:10126600030E386439EF09F03BEF09F02CEF09F073
:10127600680E366EE40EE82EFED7362EFCD700F04A
:1012860000F035C032F0380E336EE4EC09F01A0E79
:10129600366EF80EE82EFED7362EFCD700F000F09C
:1012A60035C032F0380E336EE4EC09F0C80EE82E85
:1012B600FED735C032F0380E336EE4EC09F035C097
:1012C60032F0010E336EE4EC09F035C032F0020E56
:1012D600336EE4EC09F035C032F0060E336EE4EC02
:1012E60009F035C032F00C0E336EE4EC09F035C06F
:1012F60032F0280E336EE4EC09F035C032F0800E81
:10130600336EE4EC09F012002F50D8B48DEF09F0DB
:101316008FEF09F09FEF09F02F50D96EDA6ADF30B0
:10132600E832E832070B306E070E30649DEF09F0A5
:101336009FEF09F0A3EF09F0000E316EB4EF09F04C
:101346002FC027F003EC08F0316E2FC027F02F5086
:10135600D96EDA6A000EDFBE010E286E8CEC08F03C
:10136600316E315012003AEC0BF0F28EF28CF28CA8
:10137600000E81EC0AF027C043F028C044F0980E16
:10138600435C3A0E4458D8A0CBEF09F0CDEF09F0F4
:10139600D0EF09F08982D1EF09F08992000E81B26F
:1013A600010E466E4604D8A4DBEF09F0DDEF09F026
:1013B600BBEF09F08A807EEC0BF0BBEF09F031EF52
:1013C60000F03250D8A4EAEF09F0ECEF09F0F0EFA4
:1013D60009F0000E346E10EF0AF032C027F0000E4E
:1013E600286E8CEC08F0346E32C02FF033380F0BB9
:1013F600306E12EC0AF0346E32C02FF002EC0BF0B5
:10140600346E32C02FF033C030F012EC0AF0346E76
:1014160032C02FF002EC0BF0346E345012002F5015
:10142600020F276E3050010B286E8CEC08F02F50FF
:10143600030F276ED8903030010B286E8CEC08F025
:101446002F50040F276E3040E8423F0B010B286EE9
:101456008CEC08F02F50050F276E3038E8461F0B2E
:10146600010B286E8CEC08F0316E315012003F4AA9
:10147600402A405009E1050E3F5CD8A045EF0AF02E
:1014860047EF0AF04CEF0AF08A90000E406E000E0D
:101496003F6E49504A10D8B453EF0AF055EF0AF0A0
:1014A60061EF0AF002D861EF0AF00500FA6E4950C2
:1014B600FD6E4A50FE6EFF6AFA5012001200080EC8
:1014C600B86E900EAB6E240EAC6EA00EAF6E010E13
:1014D600B06E000E276E000E286E6BEC0BF0000E41
:1014E600276E000E286E66EC0BF0000E276E000EBF
:1014F600286E70EC0BF0000E486E12002B6E2BC09F
:1015060029F029462946C2502918C30B2918C26E4C
:10151600C280C282C2B292EF0AF094EF0AF08DEF57
:101526000AF0C4502A6E296AC3502924276E000E79
:101536002A20286E12002C0EF66E160EF76E000E7E
:10154600F86E00EE01F010EE24F00900F5CFEEFF84
:10155600E550E150FAE100EE39F0100EEE6AE806C9
:10156600FDE1539053920001B6EF09F0000E8D6E27
:10157600000E8C6E000E896E000E8A6E200E8B6E2B
:10158600070E966EFD0E926EFE0E936E9F0E946E75
:101596009568FD0E7E6E0B0E7F6E000E7C6EF18ED4
:1015A6001200F29445C0D6FF414A422AE80E415C39
:1015B600030E4258D8A0E2EF0AF0E4EF0AF0EAEF91
:1015C6000AF03AEC0AF0000E426E000E416E12006E
:1015D6009E9C4B504C10D8B4F3EF0AF0F5EF0AF08E
:1015E60001EF0BF002D801EF0BF00500FA6E4B503D
:1015F600FD6E4C50FE6EFF6AFA50120012002F2844
:10160600276E010E286E8CEC08F0060EE82EFED72B
:1016160000F000F02F28276E000E286E8CEC08F0E4
:10162600306E30501200800F810F820F830F840FAF
:10163600890F8A0F8B0F8C0F8D0F920F930F940FBC
:10164600950F960F030B131B232B000EC16E050E71
:10165600C06E000EC36E000EC46E010EC26E9D8C6F
:10166600020E276E170E286E75EC0BF012007AEC40
:101676000BF0B9EC0AF061EC0BF028EC0BF04BEC3C
:101686000BF062EC0AF01F0E356E14EC09F0120036
:10169600000ED76E060ED66E060E456EF294F28AD0
:1016A600000E276E170E286E5CEC0BF0D30ED56E6F
:1016B600120027C049F028C04AF01200300ED36E3F
:1016C600000E9B6E120027C04FF028C050F012008B
:1016D60027C051F028C052F0120027C04DF028C094
:1016E6004EF0120027C04BF028C04CF01200D08EEE
:0E16F6009F8CF1841200D58E1200120012009B
:020000040030CA
:0E000000FF021F1EFF8B85FF0FC00FE00F4099
:00000001FF
